:1000000000308A00FE280000303084000008031908
:1000100017280130A100A001A00B0C28A10B0B2870
:100020004A30A000A00B12281528800B09280800D0
:100030002D10AE01AF012F084F3C031C3228831650
:100040008514831285182628AE0A2728AE012E08AB
:10005000283C03182D282D1432280230B00004202B
:10006000AF0A1B2800302D180130A10008002A1407
:10007000AB01AC0124082C0203185C282830B00026
:1000800004201820A10803194D28AB0A2B08023CB4
:1000900003184C282A105C284E28AB01AB08031922
:1000A000562883160711831207155A28831607113D
:1000B00083120711AC0A3A282A1C6528AB080319D9
:1000C00065281820A108031D2A1083160711831222
:1000D000071100302A180130A1006A298316071180
:1000E000831207158316071083120714C830B00057
:1000F0000420C830B00004208316071083120710B4
:10010000831607118312071108000230AA00182075
:10011000A10803198D280330AA0025082A02031913
:1001200098280130A6002A08A5006430B0000420F9
:100130008316051683122B10051A2B140A30B000F3
:1001400004202B18FD282408273C0318AA280A306D
:10015000A400AC280530A4070B08A0008B130130C5
:1001600083169B008312240883169A009C131C1587
:1001700055309D00AA309D009C149C18BD281C1170
:10018000831220088B042408AD000530AE002E0831
:10019000A1012D020318CF282D08A000DB28A00103
:1001A0000830AF00AD0DA00D2E0820020318A000EE
:1001B000A10DAF0BD2282108AC002C08AD00AE0178
:1001C0002D082E020318F428831607118312071135
:1001D000C830B00004208316071183120715C830F9
:1001E000B0000420AE0AE02883160711831207111D
:1001F000C830B00004200130A700972903081F3938
:100200008300613083168F0090010F088312A401D0
:10021000A501A601A7011F130030831691008312C8
:100220009A0107309900613083168F0090010F0802
:100230001230850000308700870183128701831602
:10024000851283128512C830B0000420C830B00077
:10025000042083169B019C131C141A088312A5000A
:100260001930B0000420013083169B009C131C142D
:100270001A088312A4001930B00004202408093C95
:10028000031846292408283C031860290B08A000FD
:100290008B13013083169B001E309A009C131C1593
:1002A00055309D00AA309D009C149C1855291C11A6
:1002B000831220088B043230B00004201E30A400CA
:1002C000A801A9012508033C031D70296430B00072
:1002D00004203728A108031970296E200130A800D6
:1002E0002508023C031991292508033C031991298B
:1002F0000B08A0008B1383169B0102309A009C13FD
:100300001C1555309D00AA309D009C149C18862910
:100310001C11831220088B043230B00004200230FC
:10032000A5005A30B0000420A80803198528103011
:10033000A9002508033C031DA5290330A900A8082E
:10034000031DA5295030B0000420260829020318F7
:10035000C629A6016430B00004200B08A0008B134E
:1003600083169B018312250883169A009C131C1583
:1003700055309D00AA309D009C149C18BD291C116D
:10038000831220088B043230B0000420A608031D1D
:10039000A60AA608031DCF29A8080319D1290130F0
:1003A000A700A7080319DB29A608031DDB292808D5
:1003B000113C0318E0298316071183120715E4295D
:1003C00083160711831207112708093C0318EA292D
:1003D000A701EB29A70AA8080319042A1820A108D5
:1003E0000319F429A801A701A8080319042A280859
:1003F000113C031C042A2808083C03196E20280815
:0C0400000D3C03196E20A80A912963002E
:02400E00C43FAD
:00000001FF
;PIC16F684
;CRC=73AF  CREATED="17-ώνθ-26 15:04"
