:1000000001308A00112900003030840000080319F3
:1000100017280130A100A001A00B0C28A10B0B2870
:100020004A30A000A00B12281528800B09280800D0
:100030002D10AE01AF012F084F3C031C3228831650
:100040008514831285182628AE0A2728AE012E08AB
:10005000283C03182D282D1432280230B00004202B
:10006000AF0A1B2800302D180130A10008002A100B
:10007000AA14AB01AC0124082C0203186E283230FC
:10008000B00004208316851483122A1085182A14C0
:100090002A185F28AB0A2B081D3C03185128AA1008
:1000A0006E28143024022C0203195E28031C5E28DB
:1000B0002B08163C03185E28AA106E286028AB0196
:1000C000AB080319682883160711831207156C28DB
:1000D0008316071183120711AC0A3B2883160711F8
:1000E00083120711AA1C7C282B08033C03187C28C8
:1000F0001820A108031DAA100030AA180130A10081
:100100007D298316071183120715831607108312A2
:100110000714C830B0000420C830B0000420831693
:1001200007108312071083160711831207110800A6
:100130000230AA001820A1080319A0280330AA0041
:1001400025082A020319AB280130A6002A08A500B9
:100150006430B00004208316051683122B10051A94
:100160002B140A30B00004202B18102924089F3CBF
:100170000318BD282830A400BF281430A4070B089A
:10018000A0008B13013083169B0083122408831672
:100190009A009C131C1555309D00AA309D009C149C
:1001A0009C18D0281C11831220088B042408AD0051
:1001B0001430AE002E08A1012D020318E2282D08EC
:1001C000A000EE28A0010830AF00AD0DA00D2E0854
:1001D00020020318A000A10DAF0BE5282108AC00F8
:1001E0002C08AD00AE012D082E0203180729831636
:1001F000071183120711C830B000042083160711BD
:1002000083120715C830B0000420AE0AF328831605
:10021000071183120711C830B00004200130A70075
:10022000AA2903081F398300613083168F009001CB
:100230000F088312A401A501A601A7011F13003016
:100240008316910083129A0107309900613083165A
:100250008F0090010F081230850000308700870161
:10026000831287018316851283128512C830B0006D
:100270000420C830B000042083169B019C131C147A
:100280001A088312A5001930B0000420013083162B
:100290009B009C131C141A088312A4001930B00090
:1002A00004202408273C031859292408A03C0318DB
:1002B00073290B08A0008B13013083169B00783044
:1002C0009A009C131C1555309D00AA309D009C146B
:1002D0009C1868291C11831220088B043230B0004E
:1002E00004207830A400A801A9012508033C031DBF
:1002F00083296430B00004203728A108031983291A
:1003000081200130A8002508023C0319A4292508F2
:10031000033C0319A4290B08A0008B1383169B012F
:1003200002309A009C131C1555309D00AA309D0088
:100330009C149C1899291C11831220088B043230BC
:10034000B00004200230A5005A30B0000420A808F4
:10035000031998281030A9002508033C031DB8296B
:100360000330A900A808031DB8295030B0000420AC
:10037000260829020318D929A6016430B0000420F8
:100380000B08A0008B1383169B018312250883168C
:100390009A009C131C1555309D00AA309D009C149A
:1003A0009C18D0291C11831220088B043230B00015
:1003B0000420A608031DA60AA608031DE229A80812
:1003C0000319E4290130A700A7080319EE29A6089C
:1003D000031DEE292808113C0318F3298316071181
:1003E00083120715F72983160711831207112708AF
:1003F000093C0318FD29A701FE29A70AA80803192B
:10040000172A1820A1080319072AA801A701A8087C
:100410000319172A2808113C031C172A2808083C2E
:100420000319812028080D3C03198120A80AA4295A
:02043000630067
:02400E00C43FAD
:00000001FF
;PIC16F684
;CRC=DAD9  CREATED="17-ώνθ-26 08:10"
