:1000000001308A000F2900003330840000080319F2
:1000100017280130A100A001A00B0C28A10B0B2870
:100020004A30A000A00B12281528800B09280800D0
:100030003010B101B2013208133C031C3228831680
:100040008514831285182628B10A2728B1013108A2
:100050000C3C03182D28301432280A30B300042039
:10006000B20A1B28003030180130A10008002B1400
:10007000AC01AD01AE0124082E0203185A28182045
:10008000A10803194B28AD0A2D080A3C03184A2879
:100090002B105A284C28AD01AD080319542883169B
:1000A00007118312071558288316071183120711A9
:1000B000AE0A3B282B1C6F282D08053C03186F281F
:1000C000AF012F08023C031C6F281820A108031D54
:1000D000AC0A2C08023C031C2B10AF0A61288316C3
:1000E00007118312071100302B180130A1007C2961
:1000F000831607118312071583160710831207143E
:10010000C830B3000420C830B300042083160710A1
:10011000831207108316071183120711080002309B
:10012000AB001820A108031997280330AB0025085D
:100130002B020319A2280130A6002B08A500643069
:10014000B30004200A30B3000420A608031D0E29C2
:10015000831605168312051AB12828140130A7004A
:100160000E29281C0E2928102408273C0318BB2818
:100170000A30A400BD280530A4070B08A0008B138B
:10018000013083169B008312240883169A009C1367
:100190001C1555309D00AA309D009C149C18CE283B
:1001A0001C11831220088B042408AD000530AE001A
:1001B0002E08A1012D020318E0282D08A000EC282C
:1001C000A0010830AF00AD0DA00D2E0820020318CD
:1001D000A000A10DAF0BE3282108AC002C08AD0056
:1001E000AE012D082E02031805298316071183126C
:1001F0000711C830B30004208316071183120715B6
:10020000C830B3000420AE0AF12883160711831208
:100210000711C830B30004200130A700A929030842
:100220001F398300613083168F0090010F088312FD
:10023000A401A501A601A70128101F1300308316F1
:10024000910083129A0107309900613083168F0064
:1002500090010F081230850000308700870183125B
:1002600087018316851283128512C830B3000420DB
:10027000C830B300042083169B019C131C141A0879
:100280008312A5001930B3000420013083169B00AF
:100290009C131C141A088312A4001930B300042004
:1002A0002408093C031858292408283C03187229FB
:1002B0000B08A0008B13013083169B001E309A00A0
:1002C0009C131C1555309D00AA309D009C149C1851
:1002D00067291C11831220088B043230B3000420DC
:1002E0001E30A400A901AA012508033C031D822990
:1002F0006430B30004203728A1080319822978202C
:100300000130A9002508023C0319A3292508033C54
:100310000319A3290B08A0008B1383169B0102303D
:100320009A009C131C1555309D00AA309D009C140A
:100330009C1898291C11831220088B043230B300BA
:1003400004200230A5003230B3000420A9080319AC
:100350008F281030AA002508033C031DB72902305E
:10036000AA00A908031DB7295030B30004202608AD
:100370002A020318D829A6016430B30004200B0810
:10038000A0008B1383169B018312250883169A0005
:100390009C131C1555309D00AA309D009C149C1880
:1003A000CF291C11831220088B043230B3000420A3
:1003B000A608031DA60AA608031DE129A90803191A
:1003C000E3290130A700A7080319ED29A608031D9A
:1003D000ED292908133C0318F2298316071183120B
:1003E0000715F62983160711831207112708093C00
:1003F0000318FC29A701FD29A70AA90803191A2A2D
:100400001820A10803190A2AA901A70183160711B8
:1004100083120711A90803191A2A2908133C031C7F
:100420001A2A2908093C0319782029080E3C0319C7
:080430007820A90AA32963004A
:02400E00C43FAD
:00000001FF
;PIC16F684
;CRC=057C  CREATED="22-ώνθ-26 14:54"
