:1000000001308A0004280000FF238316900000308E
:100010008A002E2935308400000803191D2801307C
:10002000A100A001A00B1228A10B11284A30A000AA
:10003000A00B18281B28800B0F2808003010B101D6
:10004000B201B3013308133C031C39280A30B50050
:100050000A2083168514831285183028B10A3128A6
:10006000B1013108103C0318372830143928B30A7D
:10007000222830185328B1080319532830143108A6
:10008000113CB200B40132083402031853280A307C
:10009000B5000A20831685148312851C5128301060
:1000A0005328B40A4328003030180130A10008005A
:1000B0002B14AC01AD01AE0124082E0203187B28DD
:1000C0001E20A10803196C28AD0A2D080C3C03184A
:1000D0006B282B107B286D28AD01AD0803197528FE
:1000E00083160711831207157928831607118312C7
:1000F0000711AE0A5C282B1C9128AD080319912822
:100100002B102D080D3CAC00AF012C082F0203185A
:1001100091281E20A108031D8F282B149128AF0AB7
:100120008528831607118312071100302B18013020
:10013000A100902983160711831207158316071053
:1001400083120714C830B5000A20C830B5000A2051
:1001500083160710831207108316071183120711E5
:1001600008000230AB001E20A1080319B928033093
:10017000AB0025082B020319C4280130A6002B0868
:10018000A5001430B5000A200A30B5000A208316F5
:1001900005168312051AD02828140130A7002D292E
:1001A000281C2D2928102408273C0318DA280A3097
:1001B000A400DC280530A4070B08A0008B13013035
:1001C00083169B008312240883169A009C131C1527
:1001D00055309D00AA309D009C149C18ED281C11E0
:1001E000831220088B042408AD000530AE002E08D1
:1001F000A1012D020318FF282D08A0000B29A00142
:100200000830AF00AD0DA00D2E0820020318A0008D
:10021000A10DAF0B02292108AC002C08AD00AE01E6
:100220002D082E02031824298316071183120711A3
:10023000C830B5000A208316071183120715C8308D
:10024000B5000A20AE0A1029831607118312071180
:10025000C830B5000A200130A700BD2903081F39A6
:100260008300A401A501A601A70128101F130030D7
:10027000831691000730831299001230831685008F
:10028000003087008701831287018316851283124D
:100290008512C830B5000A20C830B5000A20831680
:1002A0009B019C131C141A088312A5001430B5007E
:1002B0000A20013083169B009C131C141A08831219
:1002C000A4001430B5000A202408093C03186C2946
:1002D0002408283C031886290B08A0008B13013042
:1002E00083169B001E309A009C131C1555309D00F0
:1002F000AA309D009C149C187B291C118312200895
:100300008B043230B5000A201E30A400A901AA01D6
:100310002508033C031D96296430B5000A2058289F
:10032000A108031996299A200130A9002508023C4A
:100330000319B7292508033C0319B7290B08A000A6
:100340008B1383169B0102309A009C131C155530A9
:100350009D00AA309D009C149C18AC291C1183128E
:1003600020088B043230B5000A200230A50032305C
:10037000B5000A20A9080319B1280F30AA002508E2
:10038000033C031DCB290230AA00A908031DCB2979
:100390002830B5000A2026082A020318EC29A601F5
:1003A0006430B5000A200B08A0008B1383169B0154
:1003B0008312250883169A009C131C1555309D0046
:1003C000AA309D009C149C18E3291C11831220085C
:1003D0008B043230B5000A20A608031DA60AA60821
:1003E000031DF529A9080319F7290130A700A7085B
:1003F0000319012AA608031D012A2908223C031813
:10040000062A83160711831207150A2A8316071175
:10041000831207112708093C0318102AA701112A83
:10042000A70AA90803192E2A1E20A10803191E2AAB
:10043000A901A7018316071183120711A90803193F
:100440002E2A2908223C031C2E2A29080E3C0319B7
:100450009A202908183C03199A20A90AB729630091
:02400E00C43FAD
:00000001FF
;PIC16F676
;CRC=4484  CREATED="14-ўыш-26 09:25"
