:1000000001308A00372900003830840000080319C5
:1000100017280130A100A001A00B0C28A10B0B2870
:100020004A30A000A00B12281528800B09280800D0
:100030002E0883169B009C131C141A088312A1001F
:1000400008000B08A0008B13300883169B00831256
:10005000310883169A009C131C1555309D00AA3058
:100060009D009C149C1832281C11831220088B04BC
:1000700008003310B401B501B6013608133C031C67
:1000800054280A30B800042083168514831285187A
:100090004B28B40A4C28B4013408103C03185228E9
:1000A00033145428B60A3D2833186E28B4080319AF
:1000B0006E2833143408113CB500B70135083702F7
:1000C00003186E280A30B8000420831685148312A2
:1000D000851C6C2833106E28B70A5E280030331850
:1000E0000130A10008002E14AF01B001B1012408B5
:1000F0003102031896283920A10803198728B00A6D
:100100003008043C031886282E1096288828B00151
:10011000B008031990288316071183120715942835
:100120008316071183120711B10A77282E1CAC28F9
:10013000B0080319AC282E103008053CAF00B201FE
:100140002F0832020318AC283920A108031DAA2861
:100150002E14AC28B20AA0288316071183120711A7
:1001600000302E180130A100912983160711831247
:1001700007158316071083120714C830B80004202F
:10018000C830B800042083160710831207108316A6
:1001900007118312071108000230AE003920A108B0
:1001A0000319D4280330AE0025082E020319DF28D6
:1001B0000130A6002E08A5001430B80004200A3033
:1001C000B8000420831605168312051AEB2828149C
:1001D0000130A7003629281C362928102408273C7E
:1001E0000318F5280A30A400F7280530A4070130C9
:1001F000B0002408B10021202408B0000530B1006F
:100200003108A1013002031808293008A000142980
:10021000A0010830B200B00DA00D31082002031873
:10022000A000A10DB20B0B292108AF002F08B000D0
:10023000B1013008310203182D29831607118312EA
:100240000711C830B8000420831607118312071560
:10025000C830B8000420B10A192983160711831287
:100260000711C830B80004200130A700AF290308E7
:100270001F398300613083168F0090010F088312AD
:10028000A401A501A601A70128101F1300308316A1
:10029000910083129A0107309900613083168F0014
:1002A00090010F081230850000308700870183120B
:1002B00087018316851283128512C830B800042086
:1002C000C830B8000420AE0118202108A500250878
:1002D000A9001430B80004200130AE001820210815
:1002E000A4001430B80004202408093C03187C2919
:1002F0002408283C031886290130B0001E30B100C4
:1003000021203230B80004201E30A4002A14AB0192
:10031000AC012508033C031D97296430B800042074
:100320007328A10803199729B5200130AB002508CF
:10033000023C0319A9292508033C0319A929B00186
:100340000230B10021203230B80004200230A50074
:10035000A9003230B8000420AB080319CC280830BB
:10036000AC002508033C031DBD290230AC00AB08DE
:10037000031DBD292830B800042026082C020318CC
:10038000D229A601250829020319D2292508A90086
:100390006430B8000420B0012508B10021203230BB
:1003A000B8000420A608031DA60AA608031DDB2921
:1003B000AB080319DD290130A700A7080319E729B5
:1003C000A608031DE7292B081C3C0318EC298316FB
:1003D000071183120715F0298316071183120711DD
:1003E0002708093C0318F629A701F729A70AAB0833
:1003F0000319202A2A14AD012D08023C031C082AE7
:100400003920A108031D062A2A10082AAD0AFC2952
:100410002A1C102AAB018316071183120711A701AA
:10042000AB080319202A2B081C3C031C202A2B088C
:100430000C3C0319B5202B08143C0319B520AB0A5A
:04044000A929630083
:02400E00C43FAD
:00000001FF
;PIC16F684
;CRC=CEC7  CREATED="24-рту-26 09:16"
