:1000000001308A000D2900003330840000080319F4
:1000100017280130A100A001A00B0C28A10B0B2870
:100020004A30A000A00B12281528800B09280800D0
:100030003010B101B2013208133C031C3228831680
:100040000514831205182628B10A2728B1013108A2
:100050000C3C03182D28301432280A30B300042039
:10006000B20A1B28003030180130A10008002B1400
:10007000AC01AD01AE0124082E0203185A28182045
:10008000A10803194B28AD0A2D08103C03184A2873
:100090002B105A284C28AD01AD080319542883169B
:1000A00085128312851658288316851283128512AD
:1000B000AE0A3B282B1C7028AD08031970282B10A2
:1000C0002D08113CAC00AF012C082F02031870283A
:1000D0001820A108031D6E282B147028AF0A64286D
:1000E000831685128312851200302B180130A1006F
:1000F0007D29831685128312851683168510831237
:100100008514C830B3000420C830B300042083161F
:1001100085108312851083168512831285120800BC
:100120000230AB001820A108031998280330AB0057
:1001300025082B020319A3280130A6002B08A500CF
:100140006430B30004200A30B30004208316051580
:1001500083120519AF2828140130A7000C29281C88
:100160000C2928102408273C0318B9280A30A400B9
:10017000BB280530A4070B08A0008B1301308316A1
:100180009B008312240883169A009C131C1555307B
:100190009D00AA309D009C149C18CC281C11831231
:1001A00020088B042408AD000530AE002E08A10104
:1001B0002D020318DE282D08A000EA28A00108302F
:1001C000AF00AD0DA00D2E0820020318A000A10D58
:1001D000AF0BE1282108AC002C08AD00AE012D08C2
:1001E0002E02031803298316851283128512C83044
:1001F000B30004208316851283128516C830B3001D
:100200000420AE0AEF288316851283128512C830A7
:10021000B30004200130A700AA2903081F39830076
:10022000613083168F0090010F088312A401A5018D
:10023000A601A70128101F1383161F109F101F115E
:100240009F11073083129900613083168F0090014F
:100250000F0805308500851083128510831605125E
:10026000831205128316851283128512C830B300DB
:100270000420C830B300042083169B019C131C1477
:100280001A088312A5001430B3000420013083162D
:100290009B009C131C141A088312A4001430B30092
:1002A00004202408093C031859292408283C031871
:1002B00073290B08A0008B13013083169B001E309E
:1002C0009A009C131C1555309D00AA309D009C146B
:1002D0009C1868291C11831220088B043230B3004B
:1002E00004201E30A400A901AA012508033C031D17
:1002F00083296430B30004203728A1080319832917
:1003000079200130A9002508023C0319A4292508F9
:10031000033C0319A4290B08A0008B1383169B012F
:1003200002309A009C131C1555309D00AA309D0088
:100330009C149C1899291C11831220088B043230BC
:10034000B30004200230A5003230B3000420A90815
:10035000031990281030AA002508033C031DB82972
:100360000230AA00A908031DB8295030B3000420A8
:1003700026082A020318D929A6016430B3000420F4
:100380000B08A0008B1383169B018312250883168C
:100390009A009C131C1555309D00AA309D009C149A
:1003A0009C18D0291C11831220088B043230B30012
:1003B0000420A608031DA60AA608031DE229A90811
:1003C0000319E4290130A700A7080319EE29A6089C
:1003D000031DEE292908223C0318F32983168512F0
:1003E00083128516F7298316851283128512270832
:1003F000093C0318FD29A701FE29A70AA90803192A
:100400001B2A1820A10803190B2AA901A70183168A
:10041000851283128512A90803191B2A2908223C78
:10042000031C1B2A29080E3C031979202908183CB3
:0A04300003197920A90AA42963002A
:02400E00C43FAD
:00000001FF
;PIC12F683
;CRC=E582  CREATED="30-ώνθ-26 10:21"
