:1000000001308A0002290000313084000008031901
:1000100017280130A100A001A00B0C28A10B0B2870
:100020004A30A000A00B12281528800B09280800D0
:100030002E10AF01B00130084F3C031C322883164C
:100040008514831285182628AF0A2728AF012F08A8
:10005000283C03182D282E1432280230B100042029
:10006000B00A1B2800302E180130A10008002B1404
:10007000AC01AD0124082D0203185C282830B10022
:1000800004201820A10803194D28AC0A2C08023CB2
:1000900003184C282B105C284E28AC01AC0803191F
:1000A000562883160711831207155A28831607113D
:1000B00083120711AD0A3A282B1C6528AC080319D6
:1000C00065281820A108031D2B1083160711831221
:1000D000071100302B180130A1006F29831607117A
:1000E000831207158316071083120714C830B10056
:1000F0000420C830B10004208316071083120710B3
:10010000831607118312071108000230AB00182074
:10011000A10803198D280330AB0025082B02031911
:1001200098280130A6002B08A5006430B1000420F7
:100130000A30B1000420831605168312051AA4287C
:1001400028140130A7000129281C0129281024089F
:10015000273C0318AE280A30A400B0280530A407B5
:100160000B08A0008B13013083169B008312240818
:1001700083169A009C131C1555309D00AA309D00D3
:100180009C149C18C1281C11831220088B0424087D
:10019000AD000530AE002E08A1012D020318D328B2
:1001A0002D08A000DF28A0010830AF00AD0DA00D84
:1001B0002E0820020318A000A10DAF0BD62821089D
:1001C000AC002C08AD00AE012D082E020318F82853
:1001D0008316071183120711C830B100042083165B
:1001E000071183120715C830B1000420AE0AE428B5
:1001F0008316071183120711C830B10004200130A3
:10020000A7009C2903081F398300613083168F00E3
:1002100090010F088312A401A501A601A7012810CF
:100220001F1300308316910083129A010730990042
:10023000613083168F0090010F0812308500003066
:100240008700870183128701831685128312851226
:10025000C830B1000420C830B100042083169B01CF
:100260009C131C141A088312A5001930B100042035
:10027000013083169B009C131C141A088312A400DF
:100280001930B10004202408093C03184B29240824
:10029000283C031865290B08A0008B130130831636
:1002A0009B001E309A009C131C1555309D00AA30EF
:1002B0009D009C149C185A291C11831220088B0441
:1002C0003230B10004201E30A400A901AA01250883
:1002D000033C031D75296430B10004203728A108B0
:1002E000031975296E200130A9002508023C031965
:1002F00096292508033C031996290B08A0008B13A7
:1003000083169B0102309A009C131C1555309D00EA
:10031000AA309D009C149C188B291C118312200864
:100320008B043230B10004200230A5005A30B100F5
:100330000420A908031985281030AA002508033CC9
:10034000031DAA290230AA00A908031DAA295030BA
:10035000B100042026082A020318CB29A601643024
:10036000B10004200B08A0008B1383169B0183129D
:10037000250883169A009C131C1555309D00AA3041
:100380009D009C149C18C2291C11831220088B0408
:100390003230B1000420A608031DA60AA608031DDA
:1003A000D429A9080319D6290130A700A7080319E1
:1003B000E029A608031DE0292908113C0318E529B6
:1003C0008316071183120715E92983160711831273
:1003D00007112708093C0318EF29A701F029A70AEC
:1003E000A9080319092A1820A1080319F929A90144
:1003F000A701A9080319092A2908113C031C092A85
:100400002908083C03196E2029080D3C03196E20A9
:06041000A90A9629630011
:02400E00C43FAD
:00000001FF
;PIC16F684
;CRC=F77C  CREATED="18-ώνθ-26 13:35"
