:1000000001308A0004280000FF238316900000308E
:100010008A002E2938308400000803191D28013079
:10002000A100A001A00B1228A10B11284A30A000AA
:10003000A00B18281B28800B0F2808003310B401D0
:10004000B501B6013608133C031C39280A30B80044
:100050000A2083160514831205183028B40A3128A3
:10006000B4013408103C0318372833143928B60A71
:10007000222833185328B40803195328331434089A
:10008000113CB500B70135083702031853280A3070
:10009000B8000A20831605148312051C512833105A
:1000A0005328B70A4328003033180130A100080054
:1000B0002E14AF01B001B1012408310203187B28CE
:1000C0001E20A10803196C28B00A30080C3C031844
:1000D0006B282E107B286D28B001B00803197528F5
:1000E000831685128312851679288316851283124A
:1000F0008512B10A5C282E1C9128B008031991289A
:100100002E1030080D3CAF00B2012F083202031848
:1001100091281E20A108031D8F282E149128B20AB1
:100120008528831685128312851200302E1801301F
:10013000A1009729831685128312851683168510D0
:1001400083128514C830B8000A20C830B8000A20CD
:1001500083168510831285108316851283128512EB
:1001600008000230AE001E20A1080319B928033090
:10017000AE0025082E020319C4280130A6002E085F
:10018000A5001430B8000A200A30B8000A208316EF
:10019000051583120519D02828140130A7002D2930
:1001A000281C2D2928102408273C0318DA280A3097
:1001B000A400DC280530A4070B08A0008B13013035
:1001C00083169B008312240883169A009C131C1527
:1001D00055309D00AA309D009C149C18ED281C11E0
:1001E000831220088B042408B0000530B1003108C8
:1001F000A10130020318FF283008A0000B29A0013C
:100200000830B200B00DA00D310820020318A00084
:10021000A10DB20B02292108AF002F08B000B101D7
:10022000300831020318242983168512831285129F
:10023000C830B8000A208316851283128516C8308C
:10024000B8000A20B10A102983168512831285127C
:10025000C830B8000A200130A700C52903081F399B
:100260008300A401A501A601A70128101F1383166E
:100270001F109F101F119F11073083129900053026
:10028000831685008510831285108316051283124C
:1002900005128316851283128512C830B8000A2011
:1002A000C830B8000A2083169B019C131C141A083E
:1002B0008312A5002508A9001430B8000A200130D7
:1002C00083169B009C131C141A088312A40014307C
:1002D000B8000A202408093C031872292408283C85
:1002E00003188C290B08A0008B13013083169B0088
:1002F0001E309A009C131C1555309D00AA309D009D
:100300009C149C1881291C11831220088B04323004
:10031000B8000A201E30A4002A14AB01AC01250845
:10032000033C031D9D296430B8000A205828A10809
:1003300003199D299A200130AB002508023C0319BE
:10034000BF292508033C0319BF290B08A0008B1304
:1003500083169B0102309A009C131C1555309D009A
:10036000AA309D009C149C18B3291C1183122008EC
:100370008B043230B8000A200230A500A9003230C8
:10038000B8000A20AB080319B1280F30AC002508CB
:10039000033C031DD3290230AC00AB08031DD32955
:1003A0002830B8000A2026082C020318FA29A601D2
:1003B000250829020319FA292508A9006430B80084
:1003C0000A200B08A0008B1383169B0183122508BB
:1003D00083169A009C131C1555309D00AA309D0071
:1003E0009C149C18F1291C11831220088B043230B4
:1003F000B8000A20A608031DA60AA608031D032AA2
:10040000AB080319052A0130A700A70803190F2A12
:10041000A608031D0F2A2B08223C0318142A831652
:10042000851283128516182A831685128312851267
:100430002708093C03181E2AA7011F2AA70AAB0890
:100440000319482A2A14AD012D08023C031C302A46
:100450001E20A108031D2E2A2A10302AAD0A242AA4
:100460002A1C382AAB01A701831685128312851234
:10047000AB080319482A2B08223C031C482A2B08E6
:100480000E3C03199A202B08183C03199A20AB0A3A
:04049000BF2963001D
:02400E00C431BB
:00000001FF
;PIC12F675
;CRC=AB68  CREATED="15-ўыш-26 09:40"
