:1000000001308A0003290000313084000008031900
:1000100017280130A100A001A00B0C28A10B0B2870
:100020004A30A000A00B12281528800B09280800D0
:100030002E10AF01B0013008133C031C3228831688
:100040008514831285182628AF0A2728AF012F08A8
:100050000C3C03182D282E1432280A30B10004203D
:10006000B00A1B2800302E180130A10008002B1404
:10007000AC01AD0124082D02031859281820A1084D
:1000800003194A28AC0A2C08083C031849282B10ED
:1000900059284B28AC01AC080319532883160711C3
:1000A0008312071557288316071183120711AD0A0B
:1000B0003A282B1C63282C08053C031863281820B9
:1000C000A108031D2B10831607118312071100309E
:1000D0002B180130A1007029831607118312071510
:1000E0008316071083120714C830B1000420C830EB
:1000F000B10004208316071083120710831607111E
:100100008312071108000230AB001820A108031960
:100110008B280330AB0025082B02031996280130E9
:10012000A6002B08A5006430B10004200A30B100FD
:100130000420A608031D0229831605168312051A3A
:10014000A52828140130A7000229281C02292810FC
:100150002408273C0318AF280A30A400B128053032
:10016000A4070B08A0008B13013083169B00831299
:10017000240883169A009C131C1555309D00AA3044
:100180009D009C149C18C2281C11831220088B040B
:100190002408AD000530AE002E08A1012D02031881
:1001A000D4282D08A000E028A0010830AF00AD0D34
:1001B000A00D2E0820020318A000A10DAF0BD72818
:1001C0002108AC002C08AD00AE012D082E0203184A
:1001D000F9288316071183120711C830B1000420D3
:1001E0008316071183120715C830B1000420AE0A28
:1001F000E5288316071183120711C830B1000420C7
:100200000130A7009D2903081F3983006130831640
:100210008F0090010F088312A401A501A601A70178
:1002200028101F1300308316910083129A010730A3
:100230009900613083168F0090010F0812308500FD
:10024000003087008701831287018316851283128D
:100250008512C830B1000420C830B10004208316D4
:100260009B019C131C141A088312A5001930B100BD
:100270000420013083169B009C131C141A0883125F
:10028000A4001930B10004202408093C03184C29AB
:100290002408283C031866290B08A0008B130130A2
:1002A00083169B001E309A009C131C1555309D0030
:1002B000AA309D009C149C185B291C1183122008F5
:1002C0008B043230B10004201E30A400A901AA0121
:1002D0002508033C031D76296430B100042037282B
:1002E000A108031976296C200130A9002508023CD9
:1002F000031997292508033C031997290B08A00027
:100300008B1383169B0102309A009C131C155530E9
:100310009D00AA309D009C149C188C291C118312EE
:1003200020088B043230B10004200230A5003230A6
:10033000B1000420A908031983281030AA00250859
:10034000033C031DAB290230AA00A908031DAB29F9
:100350005030B100042026082A020318CC29A60137
:100360006430B10004200B08A0008B1383169B019E
:100370008312250883169A009C131C1555309D0086
:10038000AA309D009C149C18C3291C1183122008BC
:100390008B043230B1000420A608031DA60AA6086B
:1003A000031DD529A9080319D7290130A700A708DB
:1003B0000319E129A608031DE1292908113C0318A6
:1003C000E6298316071183120715EA2983160711F8
:1003D000831207112708093C0318F029A701F12906
:1003E000A70AA90803190E2A1820A1080319FE2933
:1003F000A901A7018316071183120711A908031980
:100400000E2A2908113C031C0E2A2908083C03194E
:100410006C2029080D3C03196C20A90A9729630058
:02400E00C43FAD
:00000001FF
;PIC16F684
;CRC=B131  CREATED="22-ώνθ-26 10:19"
