:1000000001308A00282900003830840000080319D4
:1000100017280130A100A001A00B0C28A10B0B2870
:100020004A30A000A00B12281528800B09280800D0
:100030003310B401B501B6013608133C031C332854
:100040000A30B800042083160514831205182A28E4
:10005000B40A2B28B4013408103C03183128331497
:100060003328B60A1C2833184D28B40803194D2824
:1000700033143408113CB500B701350837020318B2
:100080004D280A30B8000420831605148312051C7D
:100090004B2833104D28B70A3D2800303318013063
:1000A000A10008002E14AF01B001B10124083102F3
:1000B000031875281820A10803196628B00A30080B
:1000C0000C3C031865282E1075286728B001B0086D
:1000D00003196F28831685128312851673288316D9
:1000E000851283128512B10A56282E1C8B28B0085F
:1000F00003198B282E1030080D3CAF00B2012F08D9
:10010000320203188B281820A108031D89282E14F9
:100110008B28B20A7F28831685128312851200303D
:100120002E180130A1009B29831685128312851693
:100130008316851083128514C830B8000420C83097
:10014000B80004208316851083128510831685124B
:100150008312851208000230AE001820A10803198E
:10016000B3280330AE0025082E020319BE28013043
:10017000A6002E08A5001430B80004200A30B800EC
:1001800004208316051583120519CA282814013086
:10019000A7002729281C272928102408273C0318F2
:1001A000D4280A30A400D6280530A4070B08A000E4
:1001B0008B13013083169B008312240883169A0048
:1001C0009C131C1555309D00AA309D009C149C1852
:1001D000E7281C11831220088B042408B000053086
:1001E000B1003108A10130020318F9283008A0003D
:1001F0000529A0010830B200B00DA00D3108200281
:100200000318A000A10DB20BFC282108AF002F0895
:10021000B000B1013008310203181E29831685127F
:1002200083128512C830B800042083168512831209
:100230008516C830B8000420B10A0A298316851231
:1002400083128512C830B80004200130A700C929E4
:1002500003081F398300613083168F0090010F0857
:100260008312A401A501A601A70128101F1383165C
:100270001F109F101F119F110730831299006130CA
:1002800083168F0090010F080530850085108312BA
:1002900085108316051283120512831685128312A8
:1002A0008512C830B8000420C830B8000420831676
:1002B0009B019C131C141A088312A5002508A90091
:1002C0001430B8000420013083169B009C131C14CA
:1002D0001A088312A4001430B80004202408093C32
:1002E000031876292408283C031890290B08A0003D
:1002F0008B13013083169B001E309A009C131C1533
:1003000055309D00AA309D009C149C1885291C1115
:10031000831220088B043230B80004201E30A40061
:100320002A14AB01AC012508033C031DA12964304C
:10033000B80004205228A1080319A12994200130F3
:10034000AB002508023C0319C3292508033C031907
:10035000C3290B08A0008B1383169B0102309A005F
:100360009C131C1555309D00AA309D009C149C18B0
:10037000B7291C11831220088B043230B8000420E6
:100380000230A500A9003230B8000420AB080319E0
:10039000AB280F30AC002508033C031DD7290230E1
:1003A000AC00AB08031DD7292830B800042026086C
:1003B0002C020318FE29A601250829020319FE298B
:1003C0002508A9006430B80004200B08A0008B1396
:1003D00083169B018312250883169A009C131C1513
:1003E00055309D00AA309D009C149C18F5291C11C5
:1003F000831220088B043230B8000420A608031DA5
:10040000A60AA608031D072AAB080319092A01300A
:10041000A700A7080319132AA608031D132A2B08EF
:10042000223C0318182A83168512831285161C2A6B
:1004300083168512831285122708093C0318222A85
:10044000A701232AA70AAB0803194C2A2A14AD01D5
:100450002D08023C031C342A1820A108031D322A4F
:100460002A10342AAD0A282A2A1C3C2AAB01A701EB
:100470008316851283128512AB0803194C2A2B08A8
:10048000223C031C4C2A2B080E3C031994202B08F9
:0C049000183C03199420AB0AC329630038
:02400E00C43FAD
:00000001FF
;PIC12F683
;CRC=18BA  CREATED="15-ўыш-26 09:40"
