:1000000001308A0004280000FF238316900000308E
:100010008A002E2935308400000803191D2801307C
:10002000A100A001A00B1228A10B11284A30A000AA
:10003000A00B18281B28800B0F2808003010B101D6
:10004000B201B3013308133C031C39280A30B50050
:100050000A2083160514831205183028B10A3128A6
:10006000B1013108103C0318372830143928B30A7D
:10007000222830185328B1080319532830143108A6
:10008000113CB200B40132083402031853280A307C
:10009000B5000A20831605148312051C5128301060
:1000A0005328B40A4328003030180130A10008005A
:1000B0002B14AC01AD01AE0124082E0203187B28DD
:1000C0001E20A10803196C28AD0A2D080C3C03184A
:1000D0006B282B107B286D28AD01AD0803197528FE
:1000E000831685128312851679288316851283124A
:1000F0008512AE0A5C282B1C9128AD0803199128A3
:100100002B102D080D3CAC00AF012C082F0203185A
:1001100091281E20A108031D8F282B149128AF0AB7
:100120008528831685128312851200302B18013022
:10013000A1009429831685128312851683168510D3
:1001400083128514C830B5000A20C830B5000A20D3
:1001500083168510831285108316851283128512EB
:1001600008000230AB001E20A1080319B928033093
:10017000AB0025082B020319C4280130A6002B0868
:10018000A5001430B5000A200A30B5000A208316F5
:10019000051583120519D02828140130A7002D2930
:1001A000281C2D2928102408273C0318DA280A3097
:1001B000A400DC280530A4070B08A0008B13013035
:1001C00083169B008312240883169A009C131C1527
:1001D00055309D00AA309D009C149C18ED281C11E0
:1001E000831220088B042408AD000530AE002E08D1
:1001F000A1012D020318FF282D08A0000B29A00142
:100200000830AF00AD0DA00D2E0820020318A0008D
:10021000A10DAF0B02292108AC002C08AD00AE01E6
:100220002D082E02031824298316851283128512A5
:10023000C830B5000A208316851283128516C8308F
:10024000B5000A20AE0A1029831685128312851282
:10025000C830B5000A200130A700C12903081F39A2
:100260008300A401A501A601A70128101F1383166E
:100270001F109F101F119F11073083129900053026
:10028000831685008510831285108316051283124C
:1002900005128316851283128512C830B5000A2014
:1002A000C830B5000A2083169B019C131C141A0841
:1002B0008312A5001430B5000A20013083169B007C
:1002C0009C131C141A088312A4001430B5000A20D1
:1002D0002408093C031870292408283C03188A299B
:1002E0000B08A0008B13013083169B001E309A0070
:1002F0009C131C1555309D00AA309D009C149C1821
:100300007F291C11831220088B043230B5000A208B
:100310001E30A400A901AA012508033C031D9A2947
:100320006430B5000A205828A10803199A299A2098
:100330000130A9002508023C0319BB292508033C0C
:100340000319BB290B08A0008B1383169B010230F5
:100350009A009C131C1555309D00AA309D009C14DA
:100360009C18B0291C11831220088B043230B50070
:100370000A200230A5003230B5000A20A90803196E
:10038000B1280F30AA002508033C031DCF290230F5
:10039000AA00A908031DCF292830B5000A20260885
:1003A0002A020318F029A6016430B5000A200B08C0
:1003B000A0008B1383169B018312250883169A00D5
:1003C0009C131C1555309D00AA309D009C149C1850
:1003D000E7291C11831220088B043230B5000A2053
:1003E000A608031DA60AA608031DF929A9080319D2
:1003F000FB290130A700A7080319052AA608031D39
:10040000052A2908223C03180A2A8316851283121A
:1004100085160E2A83168512831285122708093C39
:100420000318142AA701152AA70AA90803193A2AAA
:100430001E20A10803192A2A1E20A10803192A2A0E
:100440001E20A10803192A2AA901A70183168512D3
:1004500083128512A90803193A2A2908223C031C91
:100460003A2A29080E3C03199A202908183C031936
:080470009A20A90ABB296300D0
:02400E00C431BB
:00000001FF
;PIC12F675
;CRC=AA0A  CREATED="14-ўыш-26 11:52"
