:1000000001308A0004280000FF238316900000308E
:100010008A003D2938308400000803191D2801306A
:10002000A100A001A00B1228A10B11284A30A000AA
:10003000A00B18281B28800B0F2808002E088316F9
:100040009B009C131C141A088312A10008000B08C3
:10005000A0008B13300883169B008312310883168F
:100060009A009C131C1555309D00AA309D009C14CD
:100070009C1838281C11831220088B0408003310A8
:10008000B401B501B6013608133C031C5A280A30E6
:10009000B8000A2083168514831285185128B40AE3
:1000A0005228B4013408103C0318582833145A2835
:1000B000B60A432833187428B40803197428331473
:1000C0003408113CB500B70135083702031874280D
:1000D0000A30B8000A20831685148312851C722802
:1000E00033107428B70A6428003033180130A10097
:1000F00008002E14AF01B001B10124083102031829
:100100009C283F20A10803198D28B00A3008043C20
:1001100003188C282E109C288E28B001B0080319D3
:10012000962883160711831207159A28831607113C
:1001300083120711B10A7D282E1CB228B0080319BA
:10014000B2282E103008053CAF00B2012F08320251
:100150000318B2283F20A108031DB0282E14B2288E
:10016000B20AA628831607118312071100302E1831
:100170000130A1008C2983160711831207158316FD
:10018000071083120714C830B8000A20C830B8001E
:100190000A20831607108312071083160711831293
:1001A000071108000230AE003F20A1080319DA2829
:1001B0000330AE0025082E020319E5280130A60001
:1001C0002E08A5001430B8000A200A30B8000A2012
:1001D000831605168312051AF12828140130A7008A
:1001E0003C29281C3C2928102408273C0318FB28FC
:1001F0000A30A400FD280530A4070130B00024080F
:10020000B10027202408B0000530B1003108A10159
:10021000300203180E293008A0001A29A001083066
:10022000B200B00DA00D310820020318A000A10DEE
:10023000B20B11292108AF002F08B000B10130081E
:100240003102031833298316071183120711C830AE
:10025000B8000A208316071183120715C830B800AA
:100260000A20B10A1F298316071183120711C8300B
:10027000B8000A200130A700AA2903081F3983000B
:10028000A401A501A601A70128101F1300308316A1
:1002900091000730831299001230831685000030D8
:1002A00087008701831287018316851283128512C6
:1002B000C830B8000A20C830B8000A20AE011E209D
:1002C0002108A5002508A9001430B8000A20013033
:1002D000AE001E202108A4001430B8000A20240813
:1002E000093C031877292408283C03188129013088
:1002F000B0001E30B10027203230B8000A201E3076
:10030000A4002A14AB01AC012508033C031D92296B
:100310006430B8000A207928A10803199229BB206B
:100320000130AB002508023C0319A4292508033C31
:100330000319A429B0010230B10027203230B800DF
:100340000A200230A500A9003230B8000A20AB080C
:100350000319D2280830AC002508033C031DB82936
:100360000230AC00AB08031DB8292830B8000A20C1
:1003700026082C020318CD29A601250829020319F5
:10038000CD292508A9006430B8000A20B00125084D
:10039000B10027203230B8000A20A608031DA60AA3
:1003A000A608031DD629AB080319D8290130A700D8
:1003B000A7080319E229A608031DE2292B081C3C03
:1003C0000318E7298316071183120715EB298316F3
:1003D0000711831207112708093C0318F129A70107
:1003E000F229A70AAB0803191B2A2A14AD012D080C
:1003F000023C031C032A3F20A108031D012A2A10E6
:10040000032AAD0AF7292A1C0B2AAB018316071110
:1004100083120711A701AB0803191B2A2B081C3CE8
:10042000031C1B2A2B080C3C0319BB202B08143C73
:0A0430000319BB20AB0AA4296300E6
:02400E00C43FAD
:00000001FF
;PIC16F676
;CRC=73C7  CREATED="24-рту-26 09:17"
