:1000000001308A0004280000FF238316900000308E
:100010008A003D2938308400000803191D2801306A
:10002000A100A001A00B1228A10B11284A30A000AA
:10003000A00B18281B28800B0F2808002E088316F9
:100040009B009C131C141A088312A10008000B08C3
:10005000A0008B13300883169B008312310883168F
:100060009A009C131C1555309D00AA309D009C14CD
:100070009C1838281C11831220088B0408003310A8
:10008000B401B501B6013608133C031C5A280A30E6
:10009000B8000A2083160514831205185128B40AE3
:1000A0005228B4013408103C0318582833145A2835
:1000B000B60A432833187428B40803197428331473
:1000C0003408113CB500B70135083702031874280D
:1000D0000A30B8000A20831605148312051C722802
:1000E00033107428B70A6428003033180130A10097
:1000F00008002E14AF01B001B10124083102031829
:100100009C283F20A10803198D28B00A3008043C20
:1001100003188C282E109C288E28B001B0080319D3
:10012000962883168512831285169A2883168512BF
:1001300083128512B10A7D282E1CB228B00803193B
:10014000B2282E103008053CAF00B2012F08320251
:100150000318B2283F20A108031DB0282E14B2288E
:10016000B20AA628831685128312851200302E1833
:100170000130A100902983168512831285168316FB
:10018000851083128514C830B8000A20C830B80022
:100190000A20831685108312851083168512831218
:1001A000851208000230AE003F20A1080319DA28AA
:1001B0000330AE0025082E020319E5280130A60001
:1001C0002E08A5001430B8000A200A30B8000A2012
:1001D0008316051583120519F12828140130A7008C
:1001E0003C29281C3C2928102408273C0318FB28FC
:1001F0000A30A400FD280530A4070130B00024080F
:10020000B10027202408B0000530B1003108A10159
:10021000300203180E293008A0001A29A001083066
:10022000B200B00DA00D310820020318A000A10DEE
:10023000B20B11292108AF002F08B000B10130081E
:100240003102031833298316851283128512C830B0
:10025000B8000A208316851283128516C830B800AC
:100260000A20B10A1F298316851283128512C8300D
:10027000B8000A200130A700AE2903081F39830007
:10028000A401A501A601A70128101F1383161F10A2
:100290009F101F119F11073083129900053083169C
:1002A00085008510831285108316051283120512AE
:1002B0008316851283128512C830B8000A20C83010
:1002C000B8000A20AE011E202108A5002508A900BB
:1002D0001430B8000A200130AE001E202108A4000E
:1002E0001430B8000A202408093C03187B2924088C
:1002F000283C031885290130B0001E30B1002720AA
:100300003230B8000A201E30A4002A14AB01AC0120
:100310002508033C031D96296430B8000A2079287B
:10032000A10803199629BB200130AB002508023C27
:100330000319A8292508033C0319A829B001023094
:10034000B10027203230B8000A200230A500A900F1
:100350003230B8000A20AB080319D2280830AC00AC
:100360002508033C031DBC290230AC00AB08031D6B
:10037000BC292830B8000A2026082C020318D129ED
:10038000A601250829020319D1292508A9006430EE
:10039000B8000A20B0012508B10027203230B8008B
:1003A0000A20A608031DA60AA608031DDA29AB0821
:1003B0000319DC290130A700A7080319E629A608BC
:1003C000031DE6292B081C3C0318EB298316851214
:1003D00083128516EF29831685128312851227084A
:1003E000093C0318F529A701F629A70AAB08031948
:1003F0001F2A2A14AD012D08023C031C072A3F20A6
:10040000A108031D052A2A10072AAD0AFB292A1C68
:100410000F2AAB018316851283128512A701AB0840
:1004200003191F2A2B081C3C031C1F2A2B080C3CF9
:100430000319BB202B08143C0319BB20AB0AA829C5
:02044000630057
:02400E00C431BB
:00000001FF
;PIC12F675
;CRC=5A81  CREATED="24-рту-26 09:19"
