:1000000001308A00112900003030840000080319F3
:1000100017280130A100A001A00B0C28A10B0B2870
:100020004A30A000A00B12281528800B09280800D0
:100030002D10AE01AF012F084F3C031C3228831650
:100040000514831205182628AE0A2728AE012E08AB
:10005000283C03182D282D1432280230B00004202B
:10006000AF0A1B2800302D180130A10008002A100B
:10007000AA14AB01AC0124082C0203186E283230FC
:10008000B00004208316051483122A1005182A14C0
:100090002A185F28AB0A2B081D3C03185128AA1008
:1000A0006E28143024022C0203195E28031C5E28DB
:1000B0002B08163C03185E28AA106E286028AB0196
:1000C000AB080319682883168512831285166C28DD
:1000D0008316851283128512AC0A3B28831685127B
:1000E00083128512AA1C7C282B08033C03187C2849
:1000F0001820A108031DAA100030AA180130A10081
:100100007C29831685128312851683168510831227
:100110008514C830B0000420C830B0000420831615
:1001200085108312851083168512831285120800AC
:100130000230AA001820A1080319A0280330AA0041
:1001400025082A020319AB280130A6002A08A500B9
:100150006430B00004208316051583122B10051996
:100160002B140A30B00004202B18102924089F3CBF
:100170000318BD282830A400BF281430A4070B089A
:10018000A0008B13013083169B0083122408831672
:100190009A009C131C1555309D00AA309D009C149C
:1001A0009C18D0281C11831220088B042408AD0051
:1001B0001430AE002E08A1012D020318E2282D08EC
:1001C000A000EE28A0010830AF00AD0DA00D2E0854
:1001D00020020318A000A10DAF0BE5282108AC00F8
:1001E0002C08AD00AE012D082E0203180729831636
:1001F000851283128512C830B00004208316851240
:1002000083128516C830B0000420AE0AF328831686
:10021000851283128512C830B00004200130A70077
:10022000A92903081F398300613083168F009001CC
:100230000F088312A401A501A601A7011F138316AD
:100240001F109F101F119F11073083129900053056
:10025000831685008510831285108316051283127C
:1002600005128316851283128512C830B00004204F
:10027000C830B000042083169B019C131C141A087C
:100280008312A5001930B0000420013083169B00B2
:100290009C131C141A088312A4001930B000042007
:1002A0002408273C031858292408A03C0318722965
:1002B0000B08A0008B13013083169B0078309A0046
:1002C0009C131C1555309D00AA309D009C149C1851
:1002D00067291C11831220088B043230B0000420DF
:1002E0007830A400A801A9012508033C031D822938
:1002F0006430B00004203728A10803198229812026
:100300000130A8002508023C0319A3292508033C55
:100310000319A3290B08A0008B1383169B0102303D
:100320009A009C131C1555309D00AA309D009C140A
:100330009C1898291C11831220088B043230B000BD
:1003400004200230A5005A30B0000420A808031988
:1003500098281030A9002508033C031DB729033055
:10036000A900A808031DB7295030B00004202608B2
:1003700029020318D829A6016430B00004200B0814
:10038000A0008B1383169B018312250883169A0005
:100390009C131C1555309D00AA309D009C149C1880
:1003A000CF291C11831220088B043230B0000420A6
:1003B000A608031DA60AA608031DE129A80803191B
:1003C000E3290130A700A7080319ED29A608031D9A
:1003D000ED292808113C0318F2298316851283128F
:1003E0008516F62983168512831285122708093C83
:1003F0000318FC29A701FD29A70AA8080319162A32
:100400001820A1080319062AA801A701A8080319A2
:10041000162A2808113C031C162A2808083C031930
:10042000812028080D3C03198120A80AA329630014
:02400E00C43FAD
:00000001FF
;PIC12F683
;CRC=A8F2  CREATED="16-ώνθ-26 15:21"
