:1000000001308A00BC290000363084000008031942
:1000100017280130A100A001A00B0C28A10B0B2870
:100020004A30A000A00B12281528800B09280800D0
:100030003310B401B5013508133C031C3228831674
:100040000514831205182628B40A2728B401340899
:100050000C3C03182D28331432280A30B600042033
:10006000B50A1B28003033180130A10008002E14F7
:10007000AF01B001B1012408310203185A28182039
:10008000A10803194B28B00A3008250203184A2892
:100090002E105A284C28B001B00803195428831692
:1000A00085128312851658288316851283128512AD
:1000B000B10A3B282E1C7328B008031973282E1090
:1000C00001302507A10030082102AF00B2012F083E
:1000D0003202031873281820A108031D71282E145A
:1000E0007328B20A6728831685128312851200309E
:1000F0002E180130A100892A8316851283128516D5
:100100008316851083128514C830B6000420C830C9
:10011000B60004208316851083128510831685127D
:10012000831285120800B401320834020318B32880
:100130008316851283128512C830B60004208316F8
:10014000851283128516B3080319AE280430B50052
:10015000C830B6000420B50BA828B128C830B600B6
:100160000420B40A94288316851283128512C8309D
:10017000B600042008000230AE001820A1080319C0
:10018000C3280330AE0026082E020319CE28013002
:10019000A7002E08A6006430B60004200A30B6007E
:1001A0000420A7080319D728A901AA01BB2983168F
:1001B0000515831205198429A908031DE1280130BA
:1001C000A900AA0183168512831285120130A800A6
:1001D0002908023C031D2A292408273C0318F32878
:1001E0000A30A400F5280530A4070B08A0008B13E3
:1001F000013083169B008312240883169A009C13F7
:100200001C1555309D00AA309D009C149C18062991
:100210001C11831220088B042408B2000530B3009F
:100220003308A1013202031818293208A00024293A
:10023000A0010830B400B20DA00D3308200203184D
:10024000A000A10DB40B1B292108AF002F08B2009C
:10025000B30193202908033C031D57292B08173CA1
:10026000031835290430AB0037290430AB070B08DD
:10027000A0008B13023083169B0083122B08831679
:100280009A009C131C1555309D00AA309D009C14AB
:100290009C1848291C11831220088B042B0CB000D9
:1002A000B00C3F30B0053008B200B30193202908EC
:1002B000043C031D832925080D3C031862290A30DC
:1002C000A50064290230A5070B08A0008B1303309A
:1002D00083169B008312250883169A009C131C1515
:1002E00055309D00AA309D009C149C1875291C1146
:1002F000831220088B040310250CFC3EB10031084A
:10030000B200B3019320BB29A9080319BB29290B0B
:1003100091290230A900AA010130B200B300932054
:100320009429A908031DAA0A2A08053C0318BB2919
:10033000AA010130A8002908023C031DA6290130AA
:10034000B200B30093200330A900BB292908033C65
:10035000031DB1290130B200B30093200430A9007D
:10036000BB292908043C031DBB290130B200B3009E
:100370009320A901A801B62A03081F398300613020
:1003800083168F0090010F088312A401A501A60116
:10039000A701A801A901AA01AB011F1383161F1011
:1003A0009F101F119F11073083129900613083162F
:1003B0008F0090010F08053085008510831285108D
:1003C0008316051283120512831685128312851275
:1003D000C830B6000420C830B600042083169B0144
:1003E0009C131C141A088312A6001430B6000420B3
:1003F000013083169B009C131C141A088312A4005E
:100400001430B60004202408093C03180B2A2408E1
:10041000283C0318252A0B08A0008B1301308316F3
:100420009B001E309A009C131C1555309D00AA306D
:100430009D009C149C181A2A1C11831220088B04FE
:100440003230B60004201E30A400023083169B0018
:100450009C131C141A088312AB001430B60004203D
:100460002B08033C0318382A2B08183C0318522A7F
:100470000B08A0008B13023083169B0010309A00EB
:100480009C131C1555309D00AA309D009C149C188F
:10049000472A1C11831220088B043230B600042036
:1004A0001030AB00033083169B009C131C141A08F9
:1004B0008312A5001430B60004202508093C031857
:1004C000652A25080E3C03187F2A0B08A0008B1311
:1004D000033083169B000A309A009C131C1555307C
:1004E0009D00AA309D009C149C18742A1C11831234
:1004F00020088B043230B60004200A30A500AC017D
:10050000AD012608033C031D8F2A6430B600042089
:100510003728A10803198F2A7C200130AC00260857
:10052000023C0319B02A2608033C0319B02A0B0821
:10053000A0008B1383169B0102309A009C131C159C
:1005400055309D00AA309D009C149C18A52A1C11B2
:10055000831220088B043230B60004200230A6003B
:100560003230B6000420AC080319BB2801302B023E
:10057000AD002608033C031DC52A0230AD00AC08BF
:10058000031DC52A5030B600042027082D02031889
:10059000E62AA7016430B60004200B08A0008B13E4
:1005A00083169B018312260883169A009C131C1540
:1005B00055309D00AA309D009C149C18DD2A1C110A
:1005C000831220088B043230B6000420A708031DD4
:1005D000A70AA708031DEF2AAC080319F12A013066
:1005E000A800A8080319FB2AA708031DFB2A2C084A
:1005F000133C0318002B8316851283128516042BD7
:1006000083168512831285122808093C03180A2BC9
:10061000A8010B2BA80AAC080319282B1820A10845
:100620000319182BAC01A8018316851283128512B9
:10063000AC080319282B2C08133C031C282B2C086E
:10064000093C03197C202C080E3C03197C20AC0AC1
:04065000B02A630069
:02400E00C43FAD
:00000001FF
;PIC12F683
;CRC=F5CD  CREATED="26-ώνθ-26 16:00"
