:1000000000308A00FE280000303084000008031908
:1000100017280130A100A001A00B0C28A10B0B2870
:100020004A30A000A00B12281528800B09280800D0
:100030002D10AE01AF012F084F3C031C3228831650
:100040000514831205182628AE0A2728AE012E08AB
:10005000283C03182D282D1432280230B00004202B
:10006000AF0A1B2800302D180130A10008002A1407
:10007000AB01AC0124082C0203185C282830B00026
:1000800004201820A10803194D28AB0A2B08023CB4
:1000900003184C282A105C284E28AB01AB08031922
:1000A000562883168512831285165A2883168512C0
:1000B00083128512AC0A3A282A1C6528AB0803195A
:1000C00065281820A108031D2A10831685128312A3
:1000D000851200302A180130A10069298316851283
:1000E000831285168316851083128514C830B000DC
:1000F0000420C830B00004208316851083128510B8
:10010000831685128312851208000230AA00182077
:10011000A10803198D280330AA0025082A02031913
:1001200098280130A6002A08A5006430B0000420F9
:100130008316051583122B1005192B140A30B000F5
:1001400004202B18FD282408273C0318AA280A306D
:10015000A400AC280530A4070B08A0008B130130C5
:1001600083169B008312240883169A009C131C1587
:1001700055309D00AA309D009C149C18BD281C1170
:10018000831220088B042408AD000530AE002E0831
:10019000A1012D020318CF282D08A000DB28A00103
:1001A0000830AF00AD0DA00D2E0820020318A000EE
:1001B000A10DAF0BD2282108AC002C08AD00AE0178
:1001C0002D082E020318F428831685128312851237
:1001D000C830B00004208316851283128516C830FB
:1001E000B0000420AE0AE02883168512831285121F
:1001F000C830B00004200130A700962903081F3939
:100200008300613083168F0090010F088312A401D0
:10021000A501A601A7011F1383161F109F101F1110
:100220009F110730831299000530831685008510D1
:100230008312851083160512831205128316851208
:1002400083128512C830B0000420C830B0000420EA
:1002500083169B019C131C141A088312A5001930E5
:10026000B0000420013083169B009C131C141A0854
:100270008312A4001930B00004202408093C03189C
:1002800045292408283C03185F290B08A0008B137C
:10029000013083169B001E309A009C131C155530AC
:1002A0009D00AA309D009C149C1854291C11831297
:1002B00020088B043230B00004201E30A400A801B6
:1002C000A9012508033C031D6F296430B0000420F8
:1002D0003728A10803196F296E200130A8002508CE
:1002E000023C031990292508033C031990290B08A7
:1002F000A0008B1383169B0102309A009C131C15DF
:1003000055309D00AA309D009C149C1885291C1115
:10031000831220088B043230B00004200230A50084
:100320005A30B0000420A808031985281030A9000D
:100330002508033C031DA4290330A900A808031DB8
:10034000A4295030B0000420260829020318C5292A
:10035000A6016430B00004200B08A0008B138316A4
:100360009B018312250883169A009C131C15553097
:100370009D00AA309D009C149C18BC291C1183125E
:1003800020088B043230B0000420A608031DA60A02
:10039000A608031DCE29A8080319D0290130A700FB
:1003A000A7080319DA29A608031DDA292808113C31
:1003B0000318DF298316851283128516E329831615
:1003C0008512831285122708093C0318E929A70121
:1003D000EA29A70AA8080319032A1820A108031963
:1003E000F329A801A701A8080319032A2808113C2A
:1003F000031C032A2808083C03196E2028080D3C1A
:0A04000003196E20A80A902963007A
:02400E00C43FAD
:00000001FF
;PIC12F683
;CRC=5588  CREATED="17-ώνθ-26 15:05"
