:1000000001308A00372900003830840000080319C5
:1000100017280130A100A001A00B0C28A10B0B2870
:100020004A30A000A00B12281528800B09280800D0
:100030002E0883169B009C131C141A088312A1001F
:1000400008000B08A0008B13300883169B00831256
:10005000310883169A009C131C1555309D00AA3058
:100060009D009C149C1832281C11831220088B04BC
:1000700008003310B401B501B6013608133C031C67
:1000800054280A30B800042083160514831205187A
:100090004B28B40A4C28B4013408103C03185228E9
:1000A00033145428B60A3D2833186E28B4080319AF
:1000B0006E2833143408113CB500B70135083702F7
:1000C00003186E280A30B800042083160514831222
:1000D000051C6C2833106E28B70A5E2800303318D0
:1000E0000130A10008002E14AF01B001B1012408B5
:1000F0003102031896283920A10803198728B00A6D
:100100003008043C031886282E1096288828B00151
:10011000B008031990288316851283128516942837
:100120008316851283128512B10A77282E1CAC28FB
:10013000B0080319AC282E103008053CAF00B201FE
:100140002F0832020318AC283920A108031DAA2861
:100150002E14AC28B20AA0288316851283128512A9
:1001600000302E180130A1009429831685128312C5
:1001700085168316851083128514C830B8000420B4
:10018000C830B800042083168510831285108316AA
:1001900085128312851208000230AE003920A108B2
:1001A0000319D4280330AE0025082E020319DF28D6
:1001B0000130A6002E08A5001430B80004200A3033
:1001C000B80004208316051583120519EB2828149E
:1001D0000130A7003629281C362928102408273C7E
:1001E0000318F5280A30A400F7280530A4070130C9
:1001F000B0002408B10021202408B0000530B1006F
:100200003108A1013002031808293008A000142980
:10021000A0010830B200B00DA00D31082002031873
:10022000A000A10DB20B0B292108AF002F08B000D0
:10023000B1013008310203182D298316851283126B
:100240008512C830B80004208316851283128516E3
:10025000C830B8000420B10A192983168512831208
:100260008512C830B80004200130A700B229030865
:100270001F398300613083168F0090010F088312AD
:10028000A401A501A601A70128101F1383161F10A2
:100290009F101F119F110730831299006130831640
:1002A0008F0090010F08053085008510831285109E
:1002B0008316051283120512831685128312851286
:1002C000C830B8000420C830B8000420AE0118209F
:1002D0002108A5002508A9001430B8000420013029
:1002E000AE0018202108A4001430B800042024080F
:1002F000093C03187F292408283C03188929013068
:10030000B0001E30B10021203230B80004201E3071
:10031000A4002A14AB01AC012508033C031D9A2953
:100320006430B80004207328A10803199A29B52065
:100330000130AB002508023C0319AC292508033C19
:100340000319AC29B0010230B10021203230B800CD
:1003500004200230A500A9003230B8000420AB0808
:100360000319CC280830AC002508033C031DC02924
:100370000230AC00AB08031DC0292830B8000420AF
:1003800026082C020318D529A601250829020319DD
:10039000D5292508A9006430B8000420B00125083B
:1003A000B10021203230B8000420A608031DA60A9F
:1003B000A608031DDE29AB080319E0290130A700B8
:1003C000A7080319EA29A608031DEA292B081C3CE3
:1003D0000318EF298316851283128516F3298316D5
:1003E0008512831285122708093C0318F929A701F1
:1003F000FA29A70AAB080319232A2A14AD012D08EC
:10040000023C031C0B2A3920A108031D092A2A10CB
:100410000B2AAD0AFF292A1C132AAB018316851269
:1004200083128512A701AB080319232A2B081C3C51
:10043000031C232A2B080C3C0319B5202B08143C61
:0A0440000319B520AB0AAC296300D4
:02400E00C43FAD
:00000001FF
;PIC12F683
;CRC=DBF2  CREATED="24-рту-26 09:18"
