:1000000001308A0002290000313084000008031901
:1000100017280130A100A001A00B0C28A10B0B2870
:100020004A30A000A00B12281528800B09280800D0
:100030002E10AF01B00130084F3C031C322883164C
:100040000514831205182628AF0A2728AF012F08A8
:10005000283C03182D282E1432280230B100042029
:10006000B00A1B2800302E180130A10008002B1404
:10007000AC01AD0124082D0203185C282830B10022
:1000800004201820A10803194D28AC0A2C08023CB2
:1000900003184C282B105C284E28AC01AC0803191F
:1000A000562883168512831285165A2883168512C0
:1000B00083128512AD0A3A282B1C6528AC08031957
:1000C00065281820A108031D2B10831685128312A2
:1000D000851200302B180130A1006E29831685127D
:1000E000831285168316851083128514C830B100DB
:1000F0000420C830B10004208316851083128510B7
:10010000831685128312851208000230AB00182076
:10011000A10803198D280330AB0025082B02031911
:1001200098280130A6002B08A5006430B1000420F7
:100130000A30B10004208316051583120519A4287E
:1001400028140130A7000129281C0129281024089F
:10015000273C0318AE280A30A400B0280530A407B5
:100160000B08A0008B13013083169B008312240818
:1001700083169A009C131C1555309D00AA309D00D3
:100180009C149C18C1281C11831220088B0424087D
:10019000AD000530AE002E08A1012D020318D328B2
:1001A0002D08A000DF28A0010830AF00AD0DA00D84
:1001B0002E0820020318A000A10DAF0BD62821089D
:1001C000AC002C08AD00AE012D082E020318F82853
:1001D0008316851283128512C830B100042083165D
:1001E000851283128516C830B1000420AE0AE428B7
:1001F0008316851283128512C830B10004200130A5
:10020000A7009B2903081F398300613083168F00E4
:1002100090010F088312A401A501A601A7012810CF
:100220001F1383161F109F101F119F110730831279
:10023000990005308316850085108312851083167A
:100240000512831205128316851283128512C83097
:10025000B1000420C830B100042083169B019C1318
:100260001C141A088312A5001930B10004200130B3
:1002700083169B009C131C141A088312A4001930C7
:10028000B10004202408093C03184A292408283C0A
:10029000031864290B08A0008B13013083169B0000
:1002A0001E309A009C131C1555309D00AA309D00ED
:1002B0009C149C1859291C11831220088B0432307D
:1002C000B10004201E30A400A901AA012508033CA6
:1002D000031D74296430B10004203728A1080319D4
:1002E00074296E200130A9002508023C03199529C4
:1002F0002508033C031995290B08A0008B138316CE
:100300009B0102309A009C131C1555309D00AA30A9
:100310009D009C149C188A291C11831220088B04B0
:100320003230B10004200230A5005A30B100042060
:10033000A908031985281030AA002508033C031DCD
:10034000A9290230AA00A908031DA9295030B1002B
:10035000042026082A020318CA29A6016430B10025
:1003600004200B08A0008B1383169B018312250821
:1003700083169A009C131C1555309D00AA309D00D1
:100380009C149C18C1291C11831220088B04323044
:10039000B1000420A608031DA60AA608031DD32940
:1003A000A9080319D5290130A700A7080319DF29D7
:1003B000A608031DDF292908113C0318E429831628
:1003C000851283128516E8298316851283128512F9
:1003D0002708093C0318EE29A701EF29A70AA90855
:1003E0000319082A1820A1080319F829A901A7014F
:1003F000A9080319082A2908113C031C082A2908FE
:10040000083C03196E2029080D3C03196E20A90A27
:0404100095296300C7
:02400E00C43FAD
:00000001FF
;PIC12F683
;CRC=8DCE  CREATED="18-ώνθ-26 13:38"
