:1000000001308A0004280000FF238316900000308E
:100010008A002E2938308400000803191D28013079
:10002000A100A001A00B1228A10B11284A30A000AA
:10003000A00B18281B28800B0F2808003310B401D0
:10004000B501B6013608133C031C39280A30B80044
:100050000A2083168514831285183028B40A3128A3
:10006000B4013408103C0318372833143928B60A71
:10007000222833185328B40803195328331434089A
:10008000113CB500B70135083702031853280A3070
:10009000B8000A20831685148312851C512833105A
:1000A0005328B70A4328003033180130A100080054
:1000B0002E14AF01B001B1012408310203187B28CE
:1000C0001E20A10803196C28B00A30080C3C031844
:1000D0006B282E107B286D28B001B00803197528F5
:1000E00083160711831207157928831607118312C7
:1000F0000711B10A5C282E1C9128B0080319912819
:100100002E1030080D3CAF00B2012F083202031848
:1001100091281E20A108031D8F282E149128B20AB1
:100120008528831607118312071100302E1801301D
:10013000A100932983160711831207158316071050
:1001400083120714C830B8000A20C830B8000A204B
:1001500083160710831207108316071183120711E5
:1001600008000230AE001E20A1080319B928033090
:10017000AE0025082E020319C4280130A6002E085F
:10018000A5001430B8000A200A30B8000A208316EF
:1001900005168312051AD02828140130A7002D292E
:1001A000281C2D2928102408273C0318DA280A3097
:1001B000A400DC280530A4070B08A0008B13013035
:1001C00083169B008312240883169A009C131C1527
:1001D00055309D00AA309D009C149C18ED281C11E0
:1001E000831220088B042408B0000530B1003108C8
:1001F000A10130020318FF283008A0000B29A0013C
:100200000830B200B00DA00D310820020318A00084
:10021000A10DB20B02292108AF002F08B000B101D7
:10022000300831020318242983160711831207119D
:10023000C830B8000A208316071183120715C8308A
:10024000B8000A20B10A102983160711831207117A
:10025000C830B8000A200130A700C12903081F399F
:100260008300A401A501A601A70128101F130030D7
:10027000831691000730831299001230831685008F
:10028000003087008701831287018316851283124D
:100290008512C830B8000A20C830B8000A2083167A
:1002A0009B019C131C141A088312A5002508A900A1
:1002B0001430B8000A20013083169B009C131C14D4
:1002C0001A088312A4001430B8000A202408093C3C
:1002D00003186E292408283C031888290B08A0005D
:1002E0008B13013083169B001E309A009C131C1543
:1002F00055309D00AA309D009C149C187D291C112E
:10030000831220088B043230B8000A201E30A4006B
:100310002A14AB01AC012508033C031D9929643064
:10032000B8000A205828A108031999299A200130F9
:10033000AB002508023C0319BB292508033C03191F
:10034000BB290B08A0008B1383169B0102309A0077
:100350009C131C1555309D00AA309D009C149C18C0
:10036000AF291C11831220088B043230B8000A20F8
:100370000230A500A9003230B8000A20AB080319EA
:10038000B1280F30AC002508033C031DCF290230F3
:10039000AC00AB08031DCF292830B8000A2026087E
:1003A0002C020318F629A601250829020319F629AB
:1003B0002508A9006430B8000A200B08A0008B13A0
:1003C00083169B018312250883169A009C131C1523
:1003D00055309D00AA309D009C149C18ED291C11DD
:1003E000831220088B043230B8000A20A608031DAF
:1003F000A60AA608031DFF29AB080319012A01302C
:10040000A700A70803190B2AA608031D0B2A2B080F
:10041000223C0318102A8316071183120715142A89
:1004200083160711831207112708093C03181A2A9B
:10043000A7011B2AA70AAB080319442A2A14AD01F5
:100440002D08023C031C2C2A1E20A108031D2A2A69
:100450002A102C2AAD0A202A2A1C342AAB01A70113
:100460008316071183120711AB080319442A2B08BE
:10047000223C031C442A2B080E3C03199A202B080B
:0C048000183C03199A20AB0ABB2963004A
:02400E00C43FAD
:00000001FF
;PIC16F676
;CRC=96F7  CREATED="15-ўыш-26 09:39"
