:1000000001308A0003290000313084000008031900
:1000100017280130A100A001A00B0C28A10B0B2870
:100020004A30A000A00B12281528800B09280800D0
:100030002E10AF01B0013008133C031C3228831688
:100040000514831205182628AF0A2728AF012F08A8
:100050000C3C03182D282E1432280A30B10004203D
:10006000B00A1B2800302E180130A10008002B1404
:10007000AC01AD0124082D02031859281820A1084D
:1000800003194A28AC0A2C08083C031849282B10ED
:1000900059284B28AC01AC08031953288316851244
:1000A0008312851657288316851283128512AD0A8E
:1000B0003A282B1C63282C08053C031863281820B9
:1000C000A108031D2B1083168512831285120030A0
:1000D0002B180130A1006F29831685128312851613
:1000E0008316851083128514C830B1000420C830EF
:1000F000B1000420831685108312851083168512A3
:100100008312851208000230AB001820A1080319E1
:100110008B280330AB0025082B02031996280130E9
:10012000A6002B08A5006430B10004200A30B100FD
:100130000420A608031D022983160515831205193C
:10014000A52828140130A7000229281C02292810FC
:100150002408273C0318AF280A30A400B128053032
:10016000A4070B08A0008B13013083169B00831299
:10017000240883169A009C131C1555309D00AA3044
:100180009D009C149C18C2281C11831220088B040B
:100190002408AD000530AE002E08A1012D02031881
:1001A000D4282D08A000E028A0010830AF00AD0D34
:1001B000A00D2E0820020318A000A10DAF0BD72818
:1001C0002108AC002C08AD00AE012D082E0203184A
:1001D000F9288316851283128512C830B1000420D5
:1001E0008316851283128516C830B1000420AE0A2A
:1001F000E5288316851283128512C830B1000420C9
:100200000130A7009C2903081F3983006130831641
:100210008F0090010F088312A401A501A601A70178
:1002200028101F1383161F109F101F119F110730D6
:10023000831299000530831685008510831285107E
:1002400083160512831205128316851283128512F6
:10025000C830B1000420C830B100042083169B01CF
:100260009C131C141A088312A5001930B100042035
:10027000013083169B009C131C141A088312A400DF
:100280001930B10004202408093C03184B29240824
:10029000283C031865290B08A0008B130130831636
:1002A0009B001E309A009C131C1555309D00AA30EF
:1002B0009D009C149C185A291C11831220088B0441
:1002C0003230B10004201E30A400A901AA01250883
:1002D000033C031D75296430B10004203728A108B0
:1002E000031975296C200130A9002508023C031967
:1002F00096292508033C031996290B08A0008B13A7
:1003000083169B0102309A009C131C1555309D00EA
:10031000AA309D009C149C188B291C118312200864
:100320008B043230B10004200230A5003230B1001D
:100330000420A908031983281030AA002508033CCB
:10034000031DAA290230AA00A908031DAA295030BA
:10035000B100042026082A020318CB29A601643024
:10036000B10004200B08A0008B1383169B0183129D
:10037000250883169A009C131C1555309D00AA3041
:100380009D009C149C18C2291C11831220088B0408
:100390003230B1000420A608031DA60AA608031DDA
:1003A000D429A9080319D6290130A700A7080319E1
:1003B000E029A608031DE0292908113C0318E529B6
:1003C0008316851283128516E929831685128312F6
:1003D00085122708093C0318EF29A701F029A70A6D
:1003E000A90803190D2A1820A1080319FD29A9013C
:1003F000A7018316851283128512A90803190D2AF5
:100400002908113C031C0D2A2908083C03196C20FB
:0E04100029080D3C03196C20A90A96296300E7
:02400E00C43FAD
:00000001FF
;PIC12F683
;CRC=B567  CREATED="22-ώνθ-26 10:18"
